{
  "contractName": "ERC20Token",
  "abi": [
    {
      "inputs": [
        {
          "internalType": "string",
          "name": "_name",
          "type": "string"
        },
        {
          "internalType": "string",
          "name": "_symbol",
          "type": "string"
        },
        {
          "internalType": "uint8",
          "name": "_decimals",
          "type": "uint8"
        },
        {
          "internalType": "uint256",
          "name": "__totalSupply",
          "type": "uint256"
        }
      ],
      "stateMutability": "nonpayable",
      "type": "constructor"
    },
    {
      "anonymous": false,
      "inputs": [
        {
          "indexed": true,
          "internalType": "address",
          "name": "tokenOwner",
          "type": "address"
        },
        {
          "indexed": true,
          "internalType": "address",
          "name": "spender",
          "type": "address"
        },
        {
          "indexed": false,
          "internalType": "uint256",
          "name": "tokens",
          "type": "uint256"
        }
      ],
      "name": "Approval",
      "type": "event"
    },
    {
      "anonymous": false,
      "inputs": [
        {
          "indexed": true,
          "internalType": "address",
          "name": "from",
          "type": "address"
        },
        {
          "indexed": true,
          "internalType": "address",
          "name": "to",
          "type": "address"
        },
        {
          "indexed": false,
          "internalType": "uint256",
          "name": "tokens",
          "type": "uint256"
        }
      ],
      "name": "Transfer",
      "type": "event"
    },
    {
      "inputs": [],
      "name": "_totalSupply",
      "outputs": [
        {
          "internalType": "uint256",
          "name": "",
          "type": "uint256"
        }
      ],
      "stateMutability": "view",
      "type": "function"
    },
    {
      "inputs": [
        {
          "internalType": "address",
          "name": "",
          "type": "address"
        },
        {
          "internalType": "address",
          "name": "",
          "type": "address"
        }
      ],
      "name": "allow",
      "outputs": [
        {
          "internalType": "uint256",
          "name": "",
          "type": "uint256"
        }
      ],
      "stateMutability": "view",
      "type": "function"
    },
    {
      "inputs": [],
      "name": "decimals",
      "outputs": [
        {
          "internalType": "uint8",
          "name": "",
          "type": "uint8"
        }
      ],
      "stateMutability": "view",
      "type": "function"
    },
    {
      "inputs": [],
      "name": "name",
      "outputs": [
        {
          "internalType": "string",
          "name": "",
          "type": "string"
        }
      ],
      "stateMutability": "view",
      "type": "function"
    },
    {
      "inputs": [],
      "name": "symbol",
      "outputs": [
        {
          "internalType": "string",
          "name": "",
          "type": "string"
        }
      ],
      "stateMutability": "view",
      "type": "function"
    },
    {
      "inputs": [
        {
          "internalType": "address",
          "name": "",
          "type": "address"
        }
      ],
      "name": "totalBalance",
      "outputs": [
        {
          "internalType": "uint256",
          "name": "",
          "type": "uint256"
        }
      ],
      "stateMutability": "view",
      "type": "function"
    },
    {
      "inputs": [],
      "name": "totalSupply",
      "outputs": [
        {
          "internalType": "uint256",
          "name": "",
          "type": "uint256"
        }
      ],
      "stateMutability": "view",
      "type": "function"
    },
    {
      "inputs": [
        {
          "internalType": "address",
          "name": "addr",
          "type": "address"
        }
      ],
      "name": "balanceOf",
      "outputs": [
        {
          "internalType": "uint256",
          "name": "",
          "type": "uint256"
        }
      ],
      "stateMutability": "view",
      "type": "function"
    },
    {
      "inputs": [
        {
          "internalType": "address",
          "name": "to",
          "type": "address"
        },
        {
          "internalType": "uint256",
          "name": "amount",
          "type": "uint256"
        }
      ],
      "name": "transfer",
      "outputs": [
        {
          "internalType": "bool",
          "name": "",
          "type": "bool"
        }
      ],
      "stateMutability": "nonpayable",
      "type": "function"
    },
    {
      "inputs": [
        {
          "internalType": "address",
          "name": "spender",
          "type": "address"
        },
        {
          "internalType": "uint256",
          "name": "amount",
          "type": "uint256"
        }
      ],
      "name": "approve",
      "outputs": [
        {
          "internalType": "bool",
          "name": "",
          "type": "bool"
        }
      ],
      "stateMutability": "nonpayable",
      "type": "function"
    },
    {
      "inputs": [
        {
          "internalType": "address",
          "name": "owner",
          "type": "address"
        },
        {
          "internalType": "address",
          "name": "spender",
          "type": "address"
        }
      ],
      "name": "allowance",
      "outputs": [
        {
          "internalType": "uint256",
          "name": "",
          "type": "uint256"
        }
      ],
      "stateMutability": "view",
      "type": "function"
    },
    {
      "inputs": [
        {
          "internalType": "address",
          "name": "from",
          "type": "address"
        },
        {
          "internalType": "address",
          "name": "to",
          "type": "address"
        },
        {
          "internalType": "uint256",
          "name": "amount",
          "type": "uint256"
        }
      ],
      "name": "transferFrom",
      "outputs": [
        {
          "internalType": "bool",
          "name": "",
          "type": "bool"
        }
      ],
      "stateMutability": "nonpayable",
      "type": "function"
    }
  ],
  "bytecode": "0x60806040523480156200001157600080fd5b50604051620014623803806200146283398181016040528101906200003791906200022b565b83600090805190602001906200004f929190620000db565b50826001908051906020019062000068929190620000db565b5081600260006101000a81548160ff021916908360ff16021790555080600381905550600354600460003373ffffffffffffffffffffffffffffffffffffffff1673ffffffffffffffffffffffffffffffffffffffff168152602001908152602001600020819055505050505062000445565b828054620000e9906200037d565b90600052602060002090601f0160209004810192826200010d576000855562000159565b82601f106200012857805160ff191683800117855562000159565b8280016001018555821562000159579182015b82811115620001585782518255916020019190600101906200013b565b5b5090506200016891906200016c565b5090565b5b80821115620001875760008160009055506001016200016d565b5090565b6000620001a26200019c84620002fd565b620002c9565b905082815260208101848484011115620001bb57600080fd5b620001c884828562000347565b509392505050565b600082601f830112620001e257600080fd5b8151620001f48482602086016200018b565b91505092915050565b6000815190506200020e8162000411565b92915050565b60008151905062000225816200042b565b92915050565b600080600080608085870312156200024257600080fd5b600085015167ffffffffffffffff8111156200025d57600080fd5b6200026b87828801620001d0565b945050602085015167ffffffffffffffff8111156200028957600080fd5b6200029787828801620001d0565b9350506040620002aa8782880162000214565b9250506060620002bd87828801620001fd565b91505092959194509250565b6000604051905081810181811067ffffffffffffffff82111715620002f357620002f2620003e2565b5b8060405250919050565b600067ffffffffffffffff8211156200031b576200031a620003e2565b5b601f19601f8301169050602081019050919050565b6000819050919050565b600060ff82169050919050565b60005b83811015620003675780820151818401526020810190506200034a565b8381111562000377576000848401525b50505050565b600060028204905060018216806200039657607f821691505b60208210811415620003ad57620003ac620003b3565b5b50919050565b7f4e487b7100000000000000000000000000000000000000000000000000000000600052602260045260246000fd5b7f4e487b7100000000000000000000000000000000000000000000000000000000600052604160045260246000fd5b6200041c8162000330565b81146200042857600080fd5b50565b62000436816200033a565b81146200044257600080fd5b50565b61100d80620004556000396000f3fe608060405234801561001057600080fd5b50600436106100b45760003560e01c80636eacd398116100715780636eacd3981461019157806370a08231146101c1578063775ad527146101f157806395d89b4114610221578063a9059cbb1461023f578063dd62ed3e1461026f576100b4565b806306fdde03146100b9578063095ea7b3146100d757806318160ddd1461010757806323b872dd14610125578063313ce567146101555780633eaaf86b14610173575b600080fd5b6100c161029f565b6040516100ce9190610d22565b60405180910390f35b6100f160048036038101906100ec9190610ba5565b61032d565b6040516100fe9190610d07565b60405180910390f35b61010f610478565b60405161011c9190610da4565b60405180910390f35b61013f600480360381019061013a9190610b56565b610482565b60405161014c9190610d07565b60405180910390f35b61015d610774565b60405161016a9190610dbf565b60405180910390f35b61017b610787565b6040516101889190610da4565b60405180910390f35b6101ab60048036038101906101a69190610af1565b61078d565b6040516101b89190610da4565b60405180910390f35b6101db60048036038101906101d69190610af1565b6107a5565b6040516101e89190610da4565b60405180910390f35b61020b60048036038101906102069190610b1a565b6107ee565b6040516102189190610da4565b60405180910390f35b610229610813565b6040516102369190610d22565b60405180910390f35b61025960048036038101906102549190610ba5565b6108a1565b6040516102669190610d07565b60405180910390f35b61028960048036038101906102849190610b1a565b610a40565b6040516102969190610da4565b60405180910390f35b600080546102ac90610f08565b80601f01602080910402602001604051908101604052809291908181526020018280546102d890610f08565b80156103255780601f106102fa57610100808354040283529160200191610325565b820191906000526020600020905b81548152906001019060200180831161030857829003601f168201915b505050505081565b600081600460003373ffffffffffffffffffffffffffffffffffffffff1673ffffffffffffffffffffffffffffffffffffffff16815260200190815260200160002054101561037b57600080fd5b6000821161038857600080fd5b81600560003373ffffffffffffffffffffffffffffffffffffffff1673ffffffffffffffffffffffffffffffffffffffff16815260200190815260200160002060008573ffffffffffffffffffffffffffffffffffffffff1673ffffffffffffffffffffffffffffffffffffffff168152602001908152602001600020819055508273ffffffffffffffffffffffffffffffffffffffff163373ffffffffffffffffffffffffffffffffffffffff167f8c5be1e5ebec7d5bd14f71427d1e84f3dd0314c0f7b2291e5b200ac8c7c3b925846040516104669190610da4565b60405180910390a36001905092915050565b6000600354905090565b600081600560008673ffffffffffffffffffffffffffffffffffffffff1673ffffffffffffffffffffffffffffffffffffffff16815260200190815260200160002060003373ffffffffffffffffffffffffffffffffffffffff1673ffffffffffffffffffffffffffffffffffffffff168152602001908152602001600020541015610543576040517f08c379a000000000000000000000000000000000000000000000000000000000815260040161053a90610d84565b60405180910390fd5b81600460008673ffffffffffffffffffffffffffffffffffffffff1673ffffffffffffffffffffffffffffffffffffffff1681526020019081526020016000205410156105c5576040517f08c379a00000000000000000000000000000000000000000000000000000000081526004016105bc90610d64565b60405180910390fd5b81600560008673ffffffffffffffffffffffffffffffffffffffff1673ffffffffffffffffffffffffffffffffffffffff16815260200190815260200160002060003373ffffffffffffffffffffffffffffffffffffffff1673ffffffffffffffffffffffffffffffffffffffff16815260200190815260200160002060008282546106519190610e4c565b9250508190555081600460008673ffffffffffffffffffffffffffffffffffffffff1673ffffffffffffffffffffffffffffffffffffffff16815260200190815260200160002060008282546106a79190610e4c565b9250508190555081600460008573ffffffffffffffffffffffffffffffffffffffff1673ffffffffffffffffffffffffffffffffffffffff16815260200190815260200160002060008282546106fd9190610df6565b925050819055508273ffffffffffffffffffffffffffffffffffffffff168473ffffffffffffffffffffffffffffffffffffffff167fddf252ad1be2c89b69c2b068fc378daa952ba7f163c4a11628f55a4df523b3ef846040516107619190610da4565b60405180910390a3600190509392505050565b600260009054906101000a900460ff1681565b60035481565b60046020528060005260406000206000915090505481565b6000600460008373ffffffffffffffffffffffffffffffffffffffff1673ffffffffffffffffffffffffffffffffffffffff168152602001908152602001600020549050919050565b6005602052816000526040600020602052806000526040600020600091509150505481565b6001805461082090610f08565b80601f016020809104026020016040519081016040528092919081815260200182805461084c90610f08565b80156108995780601f1061086e57610100808354040283529160200191610899565b820191906000526020600020905b81548152906001019060200180831161087c57829003601f168201915b505050505081565b600081600460003373ffffffffffffffffffffffffffffffffffffffff1673ffffffffffffffffffffffffffffffffffffffff168152602001908152602001600020541015610925576040517f08c379a000000000000000000000000000000000000000000000000000000000815260040161091c90610d44565b60405180910390fd5b81600460003373ffffffffffffffffffffffffffffffffffffffff1673ffffffffffffffffffffffffffffffffffffffff16815260200190815260200160002060008282546109749190610e4c565b9250508190555081600460008573ffffffffffffffffffffffffffffffffffffffff1673ffffffffffffffffffffffffffffffffffffffff16815260200190815260200160002060008282546109ca9190610df6565b925050819055508273ffffffffffffffffffffffffffffffffffffffff163373ffffffffffffffffffffffffffffffffffffffff167fddf252ad1be2c89b69c2b068fc378daa952ba7f163c4a11628f55a4df523b3ef84604051610a2e9190610da4565b60405180910390a36001905092915050565b6000600560008473ffffffffffffffffffffffffffffffffffffffff1673ffffffffffffffffffffffffffffffffffffffff16815260200190815260200160002060008373ffffffffffffffffffffffffffffffffffffffff1673ffffffffffffffffffffffffffffffffffffffff16815260200190815260200160002054905092915050565b600081359050610ad681610fa9565b92915050565b600081359050610aeb81610fc0565b92915050565b600060208284031215610b0357600080fd5b6000610b1184828501610ac7565b91505092915050565b60008060408385031215610b2d57600080fd5b6000610b3b85828601610ac7565b9250506020610b4c85828601610ac7565b9150509250929050565b600080600060608486031215610b6b57600080fd5b6000610b7986828701610ac7565b9350506020610b8a86828701610ac7565b9250506040610b9b86828701610adc565b9150509250925092565b60008060408385031215610bb857600080fd5b6000610bc685828601610ac7565b9250506020610bd785828601610adc565b9150509250929050565b610bea81610e92565b82525050565b6000610bfb82610dda565b610c058185610de5565b9350610c15818560208601610ed5565b610c1e81610f98565b840191505092915050565b6000610c36601a83610de5565b91507f2042616c616e6365206973206e6f742073756666696369656e740000000000006000830152602082019050919050565b6000610c76601883610de5565b91507f2062616c616e636520697320696e73756666696369656e7400000000000000006000830152602082019050919050565b6000610cb6601583610de5565b91507f20616c6c6f77616e636520697320746f6f206c6f7700000000000000000000006000830152602082019050919050565b610cf281610ebe565b82525050565b610d0181610ec8565b82525050565b6000602082019050610d1c6000830184610be1565b92915050565b60006020820190508181036000830152610d3c8184610bf0565b905092915050565b60006020820190508181036000830152610d5d81610c29565b9050919050565b60006020820190508181036000830152610d7d81610c69565b9050919050565b60006020820190508181036000830152610d9d81610ca9565b9050919050565b6000602082019050610db96000830184610ce9565b92915050565b6000602082019050610dd46000830184610cf8565b92915050565b600081519050919050565b600082825260208201905092915050565b6000610e0182610ebe565b9150610e0c83610ebe565b9250827fffffffffffffffffffffffffffffffffffffffffffffffffffffffffffffffff03821115610e4157610e40610f3a565b5b828201905092915050565b6000610e5782610ebe565b9150610e6283610ebe565b925082821015610e7557610e74610f3a565b5b828203905092915050565b6000610e8b82610e9e565b9050919050565b60008115159050919050565b600073ffffffffffffffffffffffffffffffffffffffff82169050919050565b6000819050919050565b600060ff82169050919050565b60005b83811015610ef3578082015181840152602081019050610ed8565b83811115610f02576000848401525b50505050565b60006002820490506001821680610f2057607f821691505b60208210811415610f3457610f33610f69565b5b50919050565b7f4e487b7100000000000000000000000000000000000000000000000000000000600052601160045260246000fd5b7f4e487b7100000000000000000000000000000000000000000000000000000000600052602260045260246000fd5b6000601f19601f8301169050919050565b610fb281610e80565b8114610fbd57600080fd5b50565b610fc981610ebe565b8114610fd457600080fd5b5056fea26469706673582212208771d0c869e6e190400af9372f2feac9becb116f147cc3e533978b5d98718ef564736f6c63430008000033",
  "immutableReferences": {},
  "source": " //SPDX-License-Identifier: UNLICENSED \npragma solidity >=0.5.0 <0.9.0;\n\ninterface IERC20 { \n\n    function totalSupply() external view returns (uint256);\n    function balanceOf(address tokenOwner) external view returns (uint256 balance);\n    function transfer(address to, uint256 tokens) external returns (bool success);\n    function allowance(address tokenOwner, address spender) external view returns (uint256 remaining);\n    function approve(address spender, uint256 tokens) external returns (bool success);\n    function transferFrom(address from,address to,uint256 tokens) external returns (bool success);\n\n    event Transfer(address indexed from, address indexed to, uint256 tokens);\n    event Approval(address indexed tokenOwner,address indexed spender,uint256 tokens);\n}\n\ncontract ERC20Token is IERC20 {\n   \n   string public name;\n   string public symbol;\n   uint8 public decimals;\n   uint256 public _totalSupply;\n   mapping(address => uint256) public totalBalance;\n   mapping (address => mapping(address => uint256)) public allow;\n\n\n  constructor(string memory _name, string memory _symbol, uint8 _decimals, uint256 __totalSupply){\n      name = _name;\n      symbol = _symbol;\n      decimals = _decimals;\n      _totalSupply = __totalSupply;\n      totalBalance[msg.sender] = _totalSupply;\n  }\n\n  function totalSupply() public view override returns(uint256){\n      return _totalSupply;\n  }\n\n  function balanceOf(address addr) public view override returns(uint256){\n      return totalBalance[addr];\n  }\n\n  function transfer(address to, uint256 amount) public override returns(bool){\n      require(totalBalance[msg.sender] >= amount, \" Balance is not sufficient\");\n      totalBalance[msg.sender] -= amount;  //totalBalance[msg.sender] = totalBalance[msg.sender] - amount;\n      totalBalance[to] += amount;\n      emit Transfer(msg.sender, to, amount);\n      return true;\n  }\n\n  \n\n  function approve (address spender, uint256 amount) public override returns (bool){\n      require(totalBalance[msg.sender] >= amount);\n      require(amount > 0);\n      allow[msg.sender][spender] = amount;\n\n      emit Approval(msg.sender, spender, amount);\n      return true;\n  }\n\n  function allowance (address owner, address spender) public view override returns(uint256){\n        return allow[owner][spender];\n  }\n  \n  function transferFrom(address from, address to, uint256 amount) public override returns(bool){\n      require(allow[from][msg.sender] >= amount, \" allowance is too low\");\n      require(totalBalance[from] >= amount,\" balance is insufficient\");\n       \n       allow[from][msg.sender] -= amount;\n       totalBalance[from] -= amount;\n       totalBalance[to] += amount;\n\n       emit Transfer(from, to, amount);\n       return true;\n\n  }\n\n}\n",
  "sourcePath": "C:\\Users\\harshita saxena\\OneDrive\\Desktop\\Lab3\\contracts\\ERC20Token.sol",
  "compiler": {
    "name": "solc",
    "version": "0.8.0+commit.c7dfd78e.Emscripten.clang"
  },
  "schemaVersion": "3.4.4",
  "updatedAt": "2022-07-19T07:05:47.943Z",
  "devdoc": {
    "kind": "dev",
    "methods": {},
    "version": 1
  },
  "userdoc": {
    "kind": "user",
    "methods": {},
    "version": 1
  }
}