{
  "contractName": "ERC20Token",
  "abi": [
    {
      "inputs": [
        {
          "internalType": "string",
          "name": "_name",
          "type": "string"
        },
        {
          "internalType": "string",
          "name": "_symbol",
          "type": "string"
        },
        {
          "internalType": "uint8",
          "name": "_decimals",
          "type": "uint8"
        },
        {
          "internalType": "uint256",
          "name": "_initialSupply",
          "type": "uint256"
        }
      ],
      "stateMutability": "nonpayable",
      "type": "constructor"
    },
    {
      "anonymous": false,
      "inputs": [
        {
          "indexed": true,
          "internalType": "address",
          "name": "tokenOwner",
          "type": "address"
        },
        {
          "indexed": true,
          "internalType": "address",
          "name": "spender",
          "type": "address"
        },
        {
          "indexed": false,
          "internalType": "uint256",
          "name": "tokens",
          "type": "uint256"
        }
      ],
      "name": "Approval",
      "type": "event"
    },
    {
      "anonymous": false,
      "inputs": [
        {
          "indexed": true,
          "internalType": "address",
          "name": "from",
          "type": "address"
        },
        {
          "indexed": true,
          "internalType": "address",
          "name": "to",
          "type": "address"
        },
        {
          "indexed": false,
          "internalType": "uint256",
          "name": "tokens",
          "type": "uint256"
        }
      ],
      "name": "Transfer",
      "type": "event"
    },
    {
      "inputs": [],
      "name": "_totalSupply",
      "outputs": [
        {
          "internalType": "uint256",
          "name": "",
          "type": "uint256"
        }
      ],
      "stateMutability": "view",
      "type": "function"
    },
    {
      "inputs": [
        {
          "internalType": "address",
          "name": "",
          "type": "address"
        },
        {
          "internalType": "address",
          "name": "",
          "type": "address"
        }
      ],
      "name": "allowed",
      "outputs": [
        {
          "internalType": "uint256",
          "name": "",
          "type": "uint256"
        }
      ],
      "stateMutability": "view",
      "type": "function"
    },
    {
      "inputs": [
        {
          "internalType": "address",
          "name": "",
          "type": "address"
        }
      ],
      "name": "balances",
      "outputs": [
        {
          "internalType": "uint256",
          "name": "",
          "type": "uint256"
        }
      ],
      "stateMutability": "view",
      "type": "function"
    },
    {
      "inputs": [],
      "name": "decimals",
      "outputs": [
        {
          "internalType": "uint8",
          "name": "",
          "type": "uint8"
        }
      ],
      "stateMutability": "view",
      "type": "function"
    },
    {
      "inputs": [],
      "name": "name",
      "outputs": [
        {
          "internalType": "string",
          "name": "",
          "type": "string"
        }
      ],
      "stateMutability": "view",
      "type": "function"
    },
    {
      "inputs": [],
      "name": "symbol",
      "outputs": [
        {
          "internalType": "string",
          "name": "",
          "type": "string"
        }
      ],
      "stateMutability": "view",
      "type": "function"
    },
    {
      "inputs": [
        {
          "internalType": "address",
          "name": "to",
          "type": "address"
        },
        {
          "internalType": "uint256",
          "name": "value",
          "type": "uint256"
        }
      ],
      "name": "transfer",
      "outputs": [
        {
          "internalType": "bool",
          "name": "",
          "type": "bool"
        }
      ],
      "stateMutability": "nonpayable",
      "type": "function"
    },
    {
      "inputs": [
        {
          "internalType": "address",
          "name": "from",
          "type": "address"
        },
        {
          "internalType": "address",
          "name": "to",
          "type": "address"
        },
        {
          "internalType": "uint256",
          "name": "value",
          "type": "uint256"
        }
      ],
      "name": "transferFrom",
      "outputs": [
        {
          "internalType": "bool",
          "name": "",
          "type": "bool"
        }
      ],
      "stateMutability": "nonpayable",
      "type": "function"
    },
    {
      "inputs": [
        {
          "internalType": "address",
          "name": "spender",
          "type": "address"
        },
        {
          "internalType": "uint256",
          "name": "value",
          "type": "uint256"
        }
      ],
      "name": "approve",
      "outputs": [
        {
          "internalType": "bool",
          "name": "",
          "type": "bool"
        }
      ],
      "stateMutability": "nonpayable",
      "type": "function"
    },
    {
      "inputs": [
        {
          "internalType": "address",
          "name": "owner",
          "type": "address"
        },
        {
          "internalType": "address",
          "name": "spender",
          "type": "address"
        }
      ],
      "name": "allowance",
      "outputs": [
        {
          "internalType": "uint256",
          "name": "",
          "type": "uint256"
        }
      ],
      "stateMutability": "view",
      "type": "function"
    },
    {
      "inputs": [
        {
          "internalType": "address",
          "name": "owner",
          "type": "address"
        }
      ],
      "name": "balanceOf",
      "outputs": [
        {
          "internalType": "uint256",
          "name": "",
          "type": "uint256"
        }
      ],
      "stateMutability": "view",
      "type": "function"
    },
    {
      "inputs": [],
      "name": "totalSupply",
      "outputs": [
        {
          "internalType": "uint256",
          "name": "",
          "type": "uint256"
        }
      ],
      "stateMutability": "view",
      "type": "function"
    }
  ],
  "bytecode": "0x60806040523480156200001157600080fd5b50604051620014093803806200140983398181016040528101906200003791906200022b565b83600090805190602001906200004f929190620000db565b50826001908051906020019062000068929190620000db565b5081600260006101000a81548160ff021916908360ff16021790555080600381905550600354600460003373ffffffffffffffffffffffffffffffffffffffff1673ffffffffffffffffffffffffffffffffffffffff168152602001908152602001600020819055505050505062000445565b828054620000e9906200037d565b90600052602060002090601f0160209004810192826200010d576000855562000159565b82601f106200012857805160ff191683800117855562000159565b8280016001018555821562000159579182015b82811115620001585782518255916020019190600101906200013b565b5b5090506200016891906200016c565b5090565b5b80821115620001875760008160009055506001016200016d565b5090565b6000620001a26200019c84620002fd565b620002c9565b905082815260208101848484011115620001bb57600080fd5b620001c884828562000347565b509392505050565b600082601f830112620001e257600080fd5b8151620001f48482602086016200018b565b91505092915050565b6000815190506200020e8162000411565b92915050565b60008151905062000225816200042b565b92915050565b600080600080608085870312156200024257600080fd5b600085015167ffffffffffffffff8111156200025d57600080fd5b6200026b87828801620001d0565b945050602085015167ffffffffffffffff8111156200028957600080fd5b6200029787828801620001d0565b9350506040620002aa8782880162000214565b9250506060620002bd87828801620001fd565b91505092959194509250565b6000604051905081810181811067ffffffffffffffff82111715620002f357620002f2620003e2565b5b8060405250919050565b600067ffffffffffffffff8211156200031b576200031a620003e2565b5b601f19601f8301169050602081019050919050565b6000819050919050565b600060ff82169050919050565b60005b83811015620003675780820151818401526020810190506200034a565b8381111562000377576000848401525b50505050565b600060028204905060018216806200039657607f821691505b60208210811415620003ad57620003ac620003b3565b5b50919050565b7f4e487b7100000000000000000000000000000000000000000000000000000000600052602260045260246000fd5b7f4e487b7100000000000000000000000000000000000000000000000000000000600052604160045260246000fd5b6200041c8162000330565b81146200042857600080fd5b50565b62000436816200033a565b81146200044257600080fd5b50565b610fb480620004556000396000f3fe608060405234801561001057600080fd5b50600436106100b45760003560e01c80633eaaf86b116100715780633eaaf86b146101a35780635c658165146101c157806370a08231146101f157806395d89b4114610221578063a9059cbb1461023f578063dd62ed3e1461026f576100b4565b806306fdde03146100b9578063095ea7b3146100d757806318160ddd1461010757806323b872dd1461012557806327e235e314610155578063313ce56714610185575b600080fd5b6100c161029f565b6040516100ce9190610cc9565b60405180910390f35b6100f160048036038101906100ec9190610b4c565b61032d565b6040516100fe9190610cae565b60405180910390f35b61010f61041f565b60405161011c9190610d4b565b60405180910390f35b61013f600480360381019061013a9190610afd565b610429565b60405161014c9190610cae565b60405180910390f35b61016f600480360381019061016a9190610a98565b61071b565b60405161017c9190610d4b565b60405180910390f35b61018d610733565b60405161019a9190610d66565b60405180910390f35b6101ab610746565b6040516101b89190610d4b565b60405180910390f35b6101db60048036038101906101d69190610ac1565b61074c565b6040516101e89190610d4b565b60405180910390f35b61020b60048036038101906102069190610a98565b610771565b6040516102189190610d4b565b60405180910390f35b6102296107ba565b6040516102369190610cc9565b60405180910390f35b61025960048036038101906102549190610b4c565b610848565b6040516102669190610cae565b60405180910390f35b61028960048036038101906102849190610ac1565b6109e7565b6040516102969190610d4b565b60405180910390f35b600080546102ac90610eaf565b80601f01602080910402602001604051908101604052809291908181526020018280546102d890610eaf565b80156103255780601f106102fa57610100808354040283529160200191610325565b820191906000526020600020905b81548152906001019060200180831161030857829003601f168201915b505050505081565b600081600560003373ffffffffffffffffffffffffffffffffffffffff1673ffffffffffffffffffffffffffffffffffffffff16815260200190815260200160002060008573ffffffffffffffffffffffffffffffffffffffff1673ffffffffffffffffffffffffffffffffffffffff168152602001908152602001600020819055508273ffffffffffffffffffffffffffffffffffffffff163373ffffffffffffffffffffffffffffffffffffffff167f8c5be1e5ebec7d5bd14f71427d1e84f3dd0314c0f7b2291e5b200ac8c7c3b9258460405161040d9190610d4b565b60405180910390a36001905092915050565b6000600354905090565b600081600560008673ffffffffffffffffffffffffffffffffffffffff1673ffffffffffffffffffffffffffffffffffffffff16815260200190815260200160002060003373ffffffffffffffffffffffffffffffffffffffff1673ffffffffffffffffffffffffffffffffffffffff1681526020019081526020016000205410156104ea576040517f08c379a00000000000000000000000000000000000000000000000000000000081526004016104e190610ceb565b60405180910390fd5b81600460008673ffffffffffffffffffffffffffffffffffffffff1673ffffffffffffffffffffffffffffffffffffffff16815260200190815260200160002054101561056c576040517f08c379a000000000000000000000000000000000000000000000000000000000815260040161056390610d0b565b60405180910390fd5b81600560008673ffffffffffffffffffffffffffffffffffffffff1673ffffffffffffffffffffffffffffffffffffffff16815260200190815260200160002060003373ffffffffffffffffffffffffffffffffffffffff1673ffffffffffffffffffffffffffffffffffffffff16815260200190815260200160002060008282546105f89190610df3565b9250508190555081600460008673ffffffffffffffffffffffffffffffffffffffff1673ffffffffffffffffffffffffffffffffffffffff168152602001908152602001600020600082825461064e9190610df3565b9250508190555081600460008573ffffffffffffffffffffffffffffffffffffffff1673ffffffffffffffffffffffffffffffffffffffff16815260200190815260200160002060008282546106a49190610d9d565b925050819055508273ffffffffffffffffffffffffffffffffffffffff168473ffffffffffffffffffffffffffffffffffffffff167fddf252ad1be2c89b69c2b068fc378daa952ba7f163c4a11628f55a4df523b3ef846040516107089190610d4b565b60405180910390a3600190509392505050565b60046020528060005260406000206000915090505481565b600260009054906101000a900460ff1681565b60035481565b6005602052816000526040600020602052806000526040600020600091509150505481565b6000600460008373ffffffffffffffffffffffffffffffffffffffff1673ffffffffffffffffffffffffffffffffffffffff168152602001908152602001600020549050919050565b600180546107c790610eaf565b80601f01602080910402602001604051908101604052809291908181526020018280546107f390610eaf565b80156108405780601f1061081557610100808354040283529160200191610840565b820191906000526020600020905b81548152906001019060200180831161082357829003601f168201915b505050505081565b600081600460003373ffffffffffffffffffffffffffffffffffffffff1673ffffffffffffffffffffffffffffffffffffffff1681526020019081526020016000205410156108cc576040517f08c379a00000000000000000000000000000000000000000000000000000000081526004016108c390610d2b565b60405180910390fd5b81600460003373ffffffffffffffffffffffffffffffffffffffff1673ffffffffffffffffffffffffffffffffffffffff168152602001908152602001600020600082825461091b9190610df3565b9250508190555081600460008573ffffffffffffffffffffffffffffffffffffffff1673ffffffffffffffffffffffffffffffffffffffff16815260200190815260200160002060008282546109719190610d9d565b925050819055508273ffffffffffffffffffffffffffffffffffffffff163373ffffffffffffffffffffffffffffffffffffffff167fddf252ad1be2c89b69c2b068fc378daa952ba7f163c4a11628f55a4df523b3ef846040516109d59190610d4b565b60405180910390a36001905092915050565b6000600560008473ffffffffffffffffffffffffffffffffffffffff1673ffffffffffffffffffffffffffffffffffffffff16815260200190815260200160002060008373ffffffffffffffffffffffffffffffffffffffff1673ffffffffffffffffffffffffffffffffffffffff16815260200190815260200160002054905092915050565b600081359050610a7d81610f50565b92915050565b600081359050610a9281610f67565b92915050565b600060208284031215610aaa57600080fd5b6000610ab884828501610a6e565b91505092915050565b60008060408385031215610ad457600080fd5b6000610ae285828601610a6e565b9250506020610af385828601610a6e565b9150509250929050565b600080600060608486031215610b1257600080fd5b6000610b2086828701610a6e565b9350506020610b3186828701610a6e565b9250506040610b4286828701610a83565b9150509250925092565b60008060408385031215610b5f57600080fd5b6000610b6d85828601610a6e565b9250506020610b7e85828601610a83565b9150509250929050565b610b9181610e39565b82525050565b6000610ba282610d81565b610bac8185610d8c565b9350610bbc818560208601610e7c565b610bc581610f3f565b840191505092915050565b6000610bdd601183610d8c565b91507f616c6c6f77616e636520746f6f206c6f770000000000000000000000000000006000830152602082019050919050565b6000610c1d601583610d8c565b91507f746f6b656e2062616c616e636520746f6f206c6f7700000000000000000000006000830152602082019050919050565b6000610c5d601683610d8c565b91507f6e6f742073756666696369656e742062616c616e6365000000000000000000006000830152602082019050919050565b610c9981610e65565b82525050565b610ca881610e6f565b82525050565b6000602082019050610cc36000830184610b88565b92915050565b60006020820190508181036000830152610ce38184610b97565b905092915050565b60006020820190508181036000830152610d0481610bd0565b9050919050565b60006020820190508181036000830152610d2481610c10565b9050919050565b60006020820190508181036000830152610d4481610c50565b9050919050565b6000602082019050610d606000830184610c90565b92915050565b6000602082019050610d7b6000830184610c9f565b92915050565b600081519050919050565b600082825260208201905092915050565b6000610da882610e65565b9150610db383610e65565b9250827fffffffffffffffffffffffffffffffffffffffffffffffffffffffffffffffff03821115610de857610de7610ee1565b5b828201905092915050565b6000610dfe82610e65565b9150610e0983610e65565b925082821015610e1c57610e1b610ee1565b5b828203905092915050565b6000610e3282610e45565b9050919050565b60008115159050919050565b600073ffffffffffffffffffffffffffffffffffffffff82169050919050565b6000819050919050565b600060ff82169050919050565b60005b83811015610e9a578082015181840152602081019050610e7f565b83811115610ea9576000848401525b50505050565b60006002820490506001821680610ec757607f821691505b60208210811415610edb57610eda610f10565b5b50919050565b7f4e487b7100000000000000000000000000000000000000000000000000000000600052601160045260246000fd5b7f4e487b7100000000000000000000000000000000000000000000000000000000600052602260045260246000fd5b6000601f19601f8301169050919050565b610f5981610e27565b8114610f6457600080fd5b50565b610f7081610e65565b8114610f7b57600080fd5b5056fea2646970667358221220c049d77320730b116bf2f1e4685b887ca025fea55fa131a3f8be743c6bddfc4464736f6c63430008000033",
  "immutableReferences": {},
  "source": "//SPDX-License-Identifier: UNLICENSED \npragma solidity >=0.5.0 <0.9.0;\n\ninterface ERC20Interface { \n\n    function totalSupply() external view returns (uint256);\n    function balanceOf(address tokenOwner) external view returns (uint256 balance);\n    function transfer(address to, uint256 tokens) external returns (bool success);\n    function allowance(address tokenOwner, address spender) external view returns (uint256 remaining);\n    function approve(address spender, uint256 tokens) external returns (bool success);\n    function transferFrom(address from,address to,uint256 tokens) external returns (bool success);\n\n    event Transfer(address indexed from, address indexed to, uint256 tokens);\n    event Approval(address indexed tokenOwner,address indexed spender,uint256 tokens);\n}\n\ncontract ERC20Token is ERC20Interface { \n\n    string public name; \n    string public symbol; \n    uint8 public decimals; \n    uint256 public _totalSupply; \n    mapping(address => uint256) public balances; \n    mapping(address => mapping(address => uint256)) public allowed;\n\n    constructor(string memory _name,string memory _symbol,uint8 _decimals,uint256 _initialSupply) {\n        name = _name;\n        symbol = _symbol;\n        decimals = _decimals;\n        _totalSupply = _initialSupply;\n        balances[msg.sender] = _totalSupply;\n    }\n\n    function transfer(address to, uint256 value)public override returns (bool)\n    {\n        require(balances[msg.sender] >= value, \"not sufficient balance\");\n        balances[msg.sender] -= value;\n        balances[to] += value;\n        emit Transfer(msg.sender, to, value);\n        return true;\n    }\n\n    function transferFrom(address from, address to, uint256 value) public override returns (bool) {\n        require(allowed[from][msg.sender] >= value, \"allowance too low\");\n        require(balances[from] >= value, \"token balance too low\");\n        allowed[from][msg.sender] -= value; //allowed[accounts[0]][accounts[1]]-100\n        balances[from] -= value;\n        balances[to] += value;\n        emit Transfer(from, to, value);\n        return true;\n    }\n\n    function approve(address spender, uint256 value) public override returns (bool){\n        allowed[msg.sender][spender] = value;\n        emit Approval(msg.sender, spender, value);\n        return true;\n    }\n\n    function allowance(address owner, address spender) public view override returns (uint256){\n        return allowed[owner][spender];\n    }\n\n    function balanceOf(address owner) public view override returns (uint256) {\n        return balances[owner];\n    }\n\n    function totalSupply() public view override returns (uint256) {\n        return _totalSupply;\n    }\n\n\n}",
  "sourcePath": "C:\\Users\\harshita saxena\\OneDrive\\Desktop\\Lab3\\contracts\\ERC20.sol",
  "compiler": {
    "name": "solc",
    "version": "0.8.0+commit.c7dfd78e.Emscripten.clang"
  },
  "schemaVersion": "3.4.4",
  "updatedAt": "2022-07-10T16:22:19.843Z",
  "devdoc": {
    "kind": "dev",
    "methods": {},
    "version": 1
  },
  "userdoc": {
    "kind": "user",
    "methods": {},
    "version": 1
  }
}